:020000040800F2
:100000001014002005010008F7280008E924000862
:10001000F5280008EB0100086B4F00080000000005
:10002000000000000000000000000000B1340008E3
:100030008B030008000000008B2F0008B334000879
:100040001F0100081F0100081F0100081F01000810
:100050001F0100081F0100081F0100081F01000800
:100060001F0100081F0100081F0100081F010008F0
:10007000550300081F0100081F0100081F010008A8
:100080001F0100081F0100081F0100081F010008D0
:10009000F54E00081F0100081F0100081F0100089D
:1000A0001F0100081F0100081F0100081F010008B0
:1000B0001F0100081F0100081F0100081F010008A0
:1000C0001F0100081F0100081F0100081F01000890
:1000D0001F010008413A00081F0100081F01000825
:1000E0001F0100081F0100081F010008DFF810D0E1
:1000F00000F03EF800480047AB4F0008AFF3008027
:10010000101400200648804706480047FEE7FEE737
:10011000FEE7FEE7FEE7FEE7FEE7FEE7FEE7FEE7B7
:100120003B350008ED0000080649074A08685043BF
:1001300043F23902104408604008704701490860E2
:1001400070470000DC0100206D4EC641D2B201E0D4
:1001500000F8012B491EFBD270470022F6E710B5CC
:1001600013460A4604461946FFF7F0FF204610BD25
:10017000064C074D06E0E06840F0010394E80700F4
:1001800098471034AC42F6D3FFF7B4FF145600087A
:100190003456000870B58C1810F8015B15F0070391
:1001A00001D110F8013B2A1106D110F8012B03E010
:1001B00010F8016B01F8016B5B1EF9D12B0705D418
:1001C0000023521E0DD401F8013BFAE710F8013B61
:1001D000CB1A921C03E013F8015B01F8015B521E7D
:1001E000F9D5A142D8D3002070BDFEE7114910B562
:1001F0000020087048708870891D087048708870E9
:1002000002F0F8FB02F078FB01210BA2084602F095
:10021000B4FC0DA20121022002F0AFFC0FA20121CB
:10022000032002F0AAFC0121BDE8104010A2042026
:1002300002F0A3BCD00100202020204354524C20C7
:100240004D454E5500000000313A4D617070696EA9
:10025000672D3E5B2030205D00000000323A4C6D7F
:100260006C696D69742D3E5B2030205D00000000DC
:10027000333A5242474D6F64652D3E5B2030205D1E
:100280000000000070B5314D2021284600F0F0FA42
:100290002F4C10212070284600F0EAFA60700821E7
:1002A000284600F0E5FAA07023780122E11C13B97A
:1002B0000D7805B90A70647814B94D7805B94A709B
:1002C00010B98D7805B98A700022012B00D10A700F
:1002D000012C00D14A70012800D18A701C4C0B7887
:1002E0000220E41E012B07D1087023785B1CDBB2CF
:1002F0002370032B00D922704B78012B07D1487053
:1003000063785B1CDBB26370062B00D962708B785C
:10031000012B07D18870A078401CC0B2A0700528BE
:1003200000D9A270012322780E21022002F004FCE1
:10033000012362780E21032002F0FEFBA278BDE8C3
:10034000704001230E21042002F0F6BB000C014096
:10035000D3010020014800F08BB80000340A0020CF
:1003600030B590F840500124AC40C56B6C60046817
:1003700063604368102B036803D099600068C26013
:1003800030BD9A600068C16030BD704772B6FEE74C
:1003900010B590F821100022022905D004218163B4
:1003A00080F82020012010BD01680B6823F00E03A7
:1003B0000B6001680B6823F001030B6090F840307C
:1003C000C46B012101FA03F3636080F8211080F807
:1003D0002020104610BD000010B590F82110002418
:1003E000022903D00421816301243DE001680A68E9
:1003F00022F00E020A6001680A6822F001020A6017
:100400001A4A0168914201D1012121E0174A1432B0
:10041000914201D110211BE0144A2832914201D1AE
:10042000891515E0114A3C32914201D189140FE03F
:100430000E4A5032914202D14FF4803108E00B4A0B
:100440006432914202D14FF4801101E04FF080718B
:10045000064A083A5160012180F82110002180F8F5
:100460002010416B01B18847204610BD08000240B2
:100470002DE9F05FC16B0C6801680B68D0F840C0D3
:10048000042202FA0CF2494DDFF824A1494E4A4FEA
:10049000DFF828B1DFF828E122422CD05A072AD50C
:1004A0000A68920603D40A6822F004020A6001680E
:1004B000A94201D1042219E0514501D1402215E0A1
:1004C000B14202D14FF4806210E0B94202D14FF440
:1004D00080420BE0594502D14FF4802206E071457D
:1004E00002D14FF4800201E04FF080622F490839B9
:1004F0004A60C16A3BE04FF0020808FA0CF818EABB
:10050000040F4FF000094FF0010235D05FEA837805
:1005100032D50B689B0605D40B6823F00A030B60E9
:1005200080F821200168A94201D1022219E0514539
:1005300001D1202215E0B14202D14FF4007210E047
:10054000B94202D14FF400520BE0594502D14FF4A9
:10055000003206E0714502D14FF4001201E04FF085
:100560000072124908394A6080F82090816A002997
:100570001AD0BDE8F05F0847082505FA0CF52542BA
:1005800012D01B0710D50B6823F00E030B6090F8F8
:100590004010C36B02FA01F15960826380F8212098
:1005A00080F82090016BE2E7BDE8F09F0800024070
:1005B0001C0002403000024044000240580002404B
:1005C0006C00024030B528B308C8134914221944FE
:1005D000B1FBF2F18900C1631049816302214177C7
:1005E0001A6843F6F0718A43D0E900142143D0E938
:1005F00002452C4321430469214344692143846912
:1006000021431143196000214163012242770177A0
:10061000084630BD012030BDF8FFFDBF000002409C
:1006200070B5044690F82000002501280CD0012068
:1006300084F8200094F821600020012E06D084F870
:1006400020000225284670BD022070BD022684F8D5
:100650002160A0632068066826F001060660204637
:10066000FFF77EFEE06A00282068016802D041F0B2
:100670000E0106E021F0040101602068016841F0EC
:100680000A0101602068016841F001010160D9E7B9
:100690002DE9F84FDFF8B8910024A9F1040B2346A7
:1006A0000F2709F1040AABF1040EC9E00125A540AA
:1006B0002A40AA427DD1674ED1F804C0ACEB0608AF
:1006C000B44532D014DCBCF1030F3AD009DCBCF1E4
:1006D000000F2AD0BCF1010F1CD0BCF1020F31D1A8
:1006E0001DE0BCF1110F17D0BCF1120F2AD119E097
:1006F000B8F5881F19D006DCB8F5803F15D0B8F5DD
:10070000801F1FD111E0B8F5001F0ED0B8F5041FEF
:1007100018D10AE0CB6815E0CB681B1D12E0CB684E
:1007200008330FE0CB680C330CE08B682BB1012B46
:100730004FF0080303D0456104E0042302E00561A3
:1007400000E00023FF2A01D8064601E000F104067C
:100750004FEA840501D9A5F12005D6F8008007FAF3
:1007600005FC28EA0C0803FA05F548EA0508C6F86E
:1007700000804D68ED0062D5374DAE6946F0010648
:10078000AE61AD6924F0030605F001050095334D17
:1007900006EB050CDCF80850A607360F07FA06F83A
:1007A00025EA0805DFF8B880404503D14FF000087E
:1007B00017E044E0DFF8AC80404502D14FF001087B
:1007C0000FE0DFF8A480404502D14FF0020808E0B6
:1007D000DFF89880404502D14FF0030801E04FF068
:1007E000040808FA06F848EA0508CCF808804D68BD
:1007F000D9F80060ED024D4601D5164300E096435E
:100800002E604D68DAF80060AD02554601D51643FA
:1008100000E096432E604D68DBF80060AD035D4656
:1008200001D5164300E096432E604D68DEF8006067
:10083000ED03754601D5164300E096432E60641C17
:100840000D682A46E5407FF431AFBDE8F88F00001F
:100850000804014000001110001002400000014097
:1008600000080140000C014000100140001401404C
:100870008068084000D0012070470AB101617047CC
:100880000904FBE701488068704700000000002071
:10089000024881680278114481607047000000209E
:1008A000074810B5016841F010010160032000F015
:1008B00075F80F2000F006F800F024F8002010BDB5
:1008C0000020024070B50D4D04464FF47A7128782F
:1008D000B1FBF0F00A490968B1FBF0F001F05BF9F7
:1008E00048B9102C07D200222146501E00F036F8DD
:1008F00000206C6070BD012070BD00000000002071
:100900000C0000200C4808B5816941F001018161AB
:10091000816901F001010091C16941F08051C1611B
:10092000C06900F0805000900448416821F0E06107
:1009300041F00071416008BD00100240000001401C
:10094000002809DB00F01F020121914040098000CE
:1009500000F1E020C0F8001170470000F0B40E4B29
:100960001B680C46C3F30223C3F10705042D00D90D
:100970000425191D072901D2002300E0DB1E0126F2
:1009800006FA05F1491E214099409E40761E164008
:100990003143F0BC04F0EABA0CED00E0064900F087
:1009A000070208684FF6FF03184040EA0220034A96
:1009B00010430860704700000CED00E00000FA05ED
:1009C00010B50C0607D501F0070101EB810100EB22
:1009D000C100103005E001EB810100EBC10000F522
:1009E000A87099B232B1012202730181190C4181C0
:1009F000002010BD00220273C180F9E7704701EBAF
:100A0000810200EBC202D0F8D402526A03F053BA5A
:100A100001EB810200EBC202D0F8D402D2F86421CB
:100A200003F0ACBA70B504460B0601F0070000EB0A
:100A3000800104EBC1014FF001024FF0000502D527
:100A40004A74103103E081F8515101F5A871087022
:100A500094F89002012808D084F89022206803F0CE
:100A6000DDFE84F89052002070BD022070BD70B58C
:100A7000044601F00F002279904201D9012070BD97
:100A80000B0601F0070000EB800104EBC1014FF001
:100A900001024FF0000502D54A74103103E081F8DD
:100AA000515101F5A8718D70087094F890020128D9
:100AB00008D084F89022206803F04DFF84F890520B
:100AC000002070BD022070BD2DE9F05F04685FEA70
:100AD000424C0B788D69B4F850C04FF000064BF6CD
:100AE0008F7948F2800A48F68F7B48F2C00E4FF4A7
:100AF00080672AD54FF0020808EBC308C44407EB0F
:100B00004C07E45BC4F30904A54203D32D1B8D619C
:100B100001D00BE08E61066836F8235005EA09051E
:100B200085F4005545EA0A0526F82350520609D5F2
:100B30000D78036833F8252002EA0B0242EA0E0220
:100B400023F8252084B30A8929E04FF0060808EB32
:100B5000C308C44407EB4C07E45BC4F30904A54293
:100B600003D32D1B8D6101D00BE08E61066836F832
:100B7000235005EA090585F4005545EA0A0526F8DB
:100B80002350520609D40B78056835F8232002EA71
:100B90000B0242EA0E0225F823202CB14A8949694A
:100BA0000068234604F0B0F92046BDE8F09F2DE927
:100BB000F05F054600680C465FEA426C16468B699A
:100BC0002278B0F850C048F68F774CF280094FF485
:100BD000004B4FF6FF7E4FF4806A4FF0000172D554
:100BE0004FF0020808EBC208E0440AEB480C30F86A
:100BF0000C00C0F30900834211D91B1AA3610FD066
:100C0000730407D52E6836F822303B4043EA0903C7
:100C100026F8223094F82420012A47D052E1A1611D
:100C2000607810B1012813D01AE02868B0F850306D
:100C3000184400EB0210B0F80424C2F30902A0F833
:100C40000424B0F8042442F40042A0F8042407E08D
:100C50002868B0F85030184400EB0210A0F80414D3
:100C60006278286812B1012A11D018E0B0F850104B
:100C70000844217800EB0110B0F80C14C1F309010D
:100C8000A0F80C14B0F80C1441F4004105E0B0F8E1
:100C900050201044227800EB0210A0F80C142178A8
:100CA0002846FFF7ACFE700472D40BE1626902447F
:100CB0006261E2690244E2612369226A9A4203D3D3
:100CC0001846111A04E03EE084F824100AB11046D8
:100CD0002162617811B1012929D031E02968B1F888
:100CE00050201144227801EB0211B1F80424C2F320
:100CF0000902A1F8042401F204413E2807D942095F
:100D0000C30600D1521E0B884BEA822207E048B18D
:100D10004208C30700D0521C0B880EEA82221343FC
:100D20000B800DE00A8842F400420A8008E029683E
:100D3000B1F850201144227801EB0211A1F804040B
:100D400083B22289BAE04FF0060808EBC208E044FB
:100D50000AEB480C30F80C00C0F30900834211D3B1
:100D60001B1AA3610FD0730407D42E6836F8223003
:100D70003B4043EA090326F8223094F82420012A54
:100D800051D09FE0A161607818B1012814D01BE018
:100D90003FE02868B0F85030184400EB0210B0F87B
:100DA0000424C2F30902A0F80424B0F8042442F495
:100DB0000042A0F8042407E02868B0F85030184436
:100DC00000EB0210A0F804146278286812B1012A1E
:100DD00011D018E0B0F850100844217800EB011051
:100DE000B0F80C14C1F30901A0F80C14B0F80C14FD
:100DF00041F4004105E0B0F850201044227800EBA7
:100E00000210A0F80C1421782846FFF7F8FD7004B2
:100E100058D42278296831F82200384040EA090085
:100E200021F822004EE0626902446261E2690244F4
:100E3000E2612369226A9A4203D31846111A216299
:100E400004E00AB11046216284F82410627829680F
:100E500012B1012A28D02FE0B1F850201144227895
:100E600001EB0211B1F80C24C2F30902A1F80C2421
:100E700001F20C413E2807D94209C30600D1521E97
:100E80000B884BEA822207E048B14208C30700D032
:100E9000521C0B880EEA822213430B800CE00A8856
:100EA00042F400420A8007E0B1F850201144227851
:100EB00001EB0211A1F80C04628983B26169286810
:100EC00004F040F82278296831F8220048F6BF7310
:100ED000184080F0300048F28003184321F82200C7
:100EE0000020BDE8F09F2DE9F04104460F0601F017
:100EF000070000EB800104EBC1014FF001064FF049
:100F0000000502D54E74103103E081F8515101F50E
:100F1000A871022B08700A61CB7000D10D7194F892
:100F20009002012809D084F89062206803F026FB23
:100F3000284684F89052BDE8F0810220FBE710B506
:100F400001F0070404EB840100EBC101C1E959235E
:100F50000022C1F86C2181F8512181F850410068CC
:100F600001F5A87103F04CFD002010BD70B50446DA
:100F70000D4601F007002179884201D9012070BD9A
:100F800029064FF000064FF0010206D500EB800164
:100F900004EBC1014A74103107E005EB850104EB55
:100FA000C10181F8516101F5A8718A70087094F847
:100FB0009002012807D084F89022206803F007FDF2
:100FC000680702D006E0022070BD04F52671206893
:100FD00003F0BFFC84F89062002070BD10B501F0F2
:100FE000070404EB840100EBC101C1E909230122DC
:100FF00081F834200B630023CB624A7401F8104F50
:10100000006803F0FDFC002010BD00001FB5044681
:10101000006803F075FF010403D5204601F0E2FDEE
:101020001FBD41050DD5206830F8441F21F48061B3
:101030000180204600F000F90021204600F017F959
:101040001FBD410405D5206830F8441F21F48041BC
:1010500074E0810405D5206830F8441F21F4005164
:101060006CE0C10414D5206830F8401F21F0040161
:101070000180206830F8401F21F0080101802046DF
:1010800000F0EDF8206830F8441F21F4805155E05D
:10109000010540D5D4F800200020694632F8203000
:1010A00021F81030401CC0B20828F7D332F8400FA6
:1010B00040F001001080206830F8402F22F001023B
:1010C00002802068B0F844205205FBD530F8442F48
:1010D00022F4806202800020236831F8102023F877
:1010E0002020401CC0B20828F6D3206830F8401FEA
:1010F00041F008010180206830F8441F21F40061AC
:101100000180206830F8401F41F004010180204632
:1011100000F0E0F81FBD810509D5206830F8441FB4
:1011200021F400710180204600F09DF81FBDC0052C
:10113000FCD5206830F8441F21F4807101801FBD68
:101140002DE9F041040004D094F89102002518B173
:1011500007E00120BDE8F08184F89052204600F0BD
:101160004DF8032084F891026571206803F0EAFBD2
:1011700094E80F0003F050FB022698BB0021206882
:1011800003F0D8FE70BB002001270BE000EB8001CC
:1011900004EBC1014F740874CD740D624D62401CA4
:1011A000C0B28D6221798142F0D8002012E000BFE8
:1011B00000EB800104EBC10181F8515181F850012D
:1011C00081F85351C1F86051C1F86451401CC0B25C
:1011D000C1F8685121798142EAD894E80F0003F000
:1011E000A8FB10B184F89162B3E7657384F891723B
:1011F000206803F09CFB0020ACE7000008B5006805
:101200000B49884212D10B48C16941F40001C16108
:10121000C069002200F40000009011461420FFF77E
:101220009DFBBDE808401420FFF78ABB08BD000005
:10123000005C00400010024070B504468079012532
:10124000022801D0FFF7A2F82946D4F8D40202F010
:101250006DFFD4F8D402BDE8704002F029BFD0F889
:10126000D40202F04DBFD0F8D40202F053BF10B543
:10127000044690F8900201280AD0012084F89002D8
:101280006173206803F058FE002084F8900210BDBE
:10129000022010BDD0F8D42200F52671104602F0CD
:1012A00051BF10B5044690F89002012810D00120DB
:1012B00084F89002206803F014FE01212046FFF715
:1012C0009DFB206803F031FB002084F8900210BDE4
:1012D000022010BD10B50446D0F8D40202F071FF10
:1012E000A07A002804D00348016841F0060101609B
:1012F00010BD000010ED00E00149012008627047B8
:1013000000000E4210B501460020234C012922D0D6
:10131000022939D010291DD161682268D20119D55E
:101320001E48C1F38342C903805C0AD561681B4A29
:10133000C1F34041921E515C194AB2FBF1F148439E
:1013400001E0184948436168490203D44000032181
:10135000B0FBF1F010BD226AC2F30121012903D1D3
:10136000920701D5C80310BD022905D1626A920710
:1013700002D549F6404010BD0329FCD121688903FC
:10138000F9D54FF2244010BD00F02AF96168C1F38D
:101390008131491C4900DBE700100240FA4F000888
:1013A00000127A0000093D002DE9F8430546007857
:1013B000354CC00754D0E0690026C00008D4E0696D
:1013C00040F08050E061E069012600F0805000901C
:1013D0002E480168C90512D40168804641F4807125
:1013E0000160FFF74FFA074605E000BFFFF74AFA32
:1013F000C01B642823D8D8F80000C005F6D5206AA1
:1014000010F4407021D0A98801F4407181421CD0B1
:10141000206A1F49012220F440700A6000220A60FD
:101420002062C00711D0FFF72DFA074641F2883835
:1014300008E000BFFFF726FAC11B414502D903208F
:10144000BDE8F883206A8007F4D5206A696820F433
:101450004070084320621EB1E06920F08050E061D6
:101460002878800705D56068A96820F440400843C3
:1014700060602878C00605D56068E96820F48000BF
:10148000084360600020DBE700100240007000406D
:10149000400442422DE9F0470F46050061D0434E1B
:1014A000306800F00700B84209D2306820F0070029
:1014B00038433060306800F00700B84251D12868E6
:1014C0003B4C810712D5400703D5606840F4E060CB
:1014D00060602878000703D5606840F46050606061
:1014E0006068A96820F0F000084360602878C007B1
:1014F00028D06868012810D02168022810D08907F8
:1015000000292EDA616821F0030101436160FFF7D1
:10151000B9F9804641F288390DE021688903EFE787
:101520008901EDE7FFF7AEF9A0EB0801494502D9C3
:101530000320BDE8F0876068696800F00C00B0EB3C
:10154000810FEFD1306800F00700B8420BD9306846
:1015500020F0070038433060306800F00700B842E0
:1015600001D00120E5E72878400705D56068E968E3
:1015700020F4E060084360602878000706D56068C2
:10158000296920F4605040EAC100606000F038F83A
:101590006168084AC1F30311515CC84006490860FC
:1015A00006480068FFF78EF90020C2E700200240DD
:1015B000001002400A5000080C0000200400002027
:1015C0000448054900684968044AC1F30221515C96
:1015D000C84070470C000020001002401A5000085C
:1015E0000448054900684968044AC1F3C221515CB6
:1015F000C84070470C000020001002401A5000083C
:101600000E4A51680E4801F00C03042B11D0082B30
:101610000FD10C48C1F38343C903C05C0AD551689C
:10162000084AC1F34041921E515C054A5043B0FB49
:10163000F1F0704704494843704700000010024031
:1016400000127A00E84F000800093D002DE9F84F2C
:10165000040070D02078C04DC00749D06868C0F33E
:101660008100012807D06868C0F38100022809D1F1
:101670006868C00306D52868800339D560680028EB
:10168000E7D035E06068B0F5803F0BD010B1B0F521
:10169000A02F11D0286820F480302860286820F41A
:1016A000802002E0286840F480302860606890B1B3
:1016B000FFF7E8F806460AE0286840F48020286032
:1016C000F0E700BFFFF7DEF8801B642873D82868B6
:1016D0008003F7D50CE0FFF7D5F8064605E000BF1C
:1016E000FFF7D0F8801B6428F0D828688003F7D46F
:1016F00020789A4E80074FF001094FF0000839D545
:10170000686810F00C0F07D06868C0F381000228E9
:1017100009D16868C00306D42868800714D52069F9
:10172000012808D110E02069B0B1C6F80090FFF799
:10173000A9F8074605E00AE1FFF7A4F8C01B022854
:10174000C4D828688007F7D52868616920F0F800B8
:1017500040EAC10028600DE0C6F80080FFF792F86B
:10176000074604E0FFF78EF8C01B022823D828683C
:101770008007F7D4207800072CD57948A169D9B122
:10178000C0F80090FFF77EF8074604E0FFF77AF80C
:10179000C01B02280FD8686A8007F7D571484FF43C
:1017A000FA510068B0FBF1F0009000BF0098411EB4
:1017B0000091FAD20EE080E0C0F80080FFF762F8F6
:1017C000074604E0FFF75EF8C01B022875D8686A78
:1017D0008007F7D42078400760D5E8690027C0006B
:1017E00008D4E86940F08050E861E869012700F01A
:1017F000805000905C480168C90513D40168834695
:1018000041F480710160FFF73DF8824606E000BFB9
:10181000FFF738F8A0EB0A0064284ED8DBF8000088
:10182000C005F5D5E06801280AD008B1052813D015
:10183000286A20F001002862286A20F0040002E0F3
:10184000286A40F001002862E06841F2883B98B1C4
:10185000FFF718F882460BE0286A40F0040028627F
:10186000EEE700BFFFF70EF8A0EB0A0159455AD882
:10187000286A8007F6D50CE0FFF704F8824605E0F9
:10188000FFF700F8A0EB0A0159454CD8286A8007F9
:10189000F6D41FB1E86920F08050E861E06988B3B0
:1018A0006968C1F38101022944D00228C6F860802A
:1018B00004D0FEF7E7FF044638E034E0FEF7E2FF2D
:1018C000074604E0FEF7DEFFC01B02282BD828687D
:1018D0008001F7D4206AB0F5803F05D16868A1681F
:1018E00020F4003008436860D4E9080108436968BF
:1018F00021F4741108436860C6F86090FEF7C2FFD7
:10190000044606E025E000BFFEF7BCFF001B0228EE
:1019100009D828688001F7D51BE000BFFEF7B2FFA9
:10192000001B022802D90320BDE8F88F2868800137
:10193000F4D40EE00128F7D06868226A00F4803100
:10194000914204D1616A00F47010884201D00120F4
:10195000EAE70020E8E700000010024000004242F1
:10196000800442420C00002000700040F8B50500E1
:101970004FF0000016460C46009006D02CB1002215
:101980006946284600F019F808B10120F8BD287B07
:101990002070E87BE070697B6170A97BA17056B113
:1019A00001F073FCE070607801F06FFC6070A0786B
:1019B00001F06BFCA0700020F8BD2DE9F0479146C6
:1019C0000C465FEA00084AD084B3D8F800004068AB
:1019D000400744D4404601F0F7FC4FF461620546ED
:1019E000B0FBF2F1B0FBF2F302FB13503C23B0FB6F
:1019F000F3F0B5FBF2F6607002FB1650B0FBF3F2A9
:101A000003FB1200A070182931D31820B1FBF0F7A6
:101A1000B1FBF0F200FB12102070404601F0CDFC4B
:101A2000411C04D0A84202D9461B02E017E04FF047
:101A3000FF36A7EB071000EB4000C0EB001005EBF2
:101A4000C0152946404601F00EFD40B9701C01D07A
:101A5000711900E03146404601F0F1FC10B101205F
:101A6000BDE8F0873946404601F01AFC00E02170DD
:101A7000B9F1000F0BD0207801F007FC20706078DE
:101A800001F003FC6070A07801F0FFFBA070002063
:101A9000E6E7000070B5040003D0607C002610B1BA
:101AA00005E0012070BD2674204600F03DF80220BC
:101AB0006074204600F052F8042550BB204601F027
:101AC00046FC30BB2068416821F007014160A068F6
:101AD00020B11448016821F0010101601148001F84
:101AE0000168A26821F46071114301606068411CC3
:101AF00004D10120FFF706FC58B1401E2268C0F354
:101B000003419160216880B2C860204601F03AFC30
:101B100008B16574C5E7E67301206073A073607453
:101B2000002070BD306C004008B50068084988424C
:101B30000DD1FFF7E1FB0748C16941F00061C161C8
:101B4000C069054900F0006000900120086008BDF0
:101B500000280040001002403C04424270B50400DE
:101B60000AD02068416821F008014160FEF78AFE32
:101B700005464FF47A7608E0012070BDFEF782FE3C
:101B8000401BB04201D9032070BD206840680007A7
:101B9000F4D5002070BD10B5401EB0F1807F01D398
:101BA000012010BD4FF0E02460610F21601703F0A9
:101BB000DDF90020A06107202061002010BD10B5D4
:101BC00090F83C20012A22D0012280F83C20CA68EB
:101BD0008C6822F4407222434C6822F480622243D3
:101BE0000C6822F4006222430C6922F480522243E2
:101BF0004C6922F400522243C969002322F4804236
:101C00000A4301684A6480F83C30002010BD02207D
:101C100010BD000070B590F83C20012A26D00124A8
:101C200080F83C40022280F83D2003685A689D6895
:101C300022F070060A6832435A600D4B02689A42DD
:101C400008D0B2F1804F05D00A4B9A4202D00A4B1D
:101C50009A4204D1496825F080031943916080F8C5
:101C60003D40002180F83C10084670BD022070BD48
:101C7000002C0140000400400008004010B50400A2
:101C800003D094F83D0010B107E0012010BD002002
:101C900084F83C00204600F01FF8022084F83D0044
:101CA000211D206801F04AFC012084F8460084F8D8
:101CB0003E0084F83F0084F8400084F8410084F836
:101CC000420084F8430084F8440084F8450084F816
:101CD0003D00002010BD000038B505460068184AD8
:101CE000184990421FD1886940F400608861886972
:101CF000164C00F4006000901348206010206060D3
:101D000000208021C4E90201890021618900C4E921
:101D10000510E0612046FEF755FC08B1FEF736FBE2
:101D20006C62656238BD0A4A9042FBD1C86940F0D6
:101D30000200C861C86900F00200009038BD0000D0
:101D4000002C0140001002401C000240340A002018
:101D50000004004090F83D10012901D00120704797
:101D6000022180F83D1000680B49884208D0B0F18C
:101D7000804F05D00949884202D00949884204D1E0
:101D8000816801F00701062903D0016841F00101D3
:101D90000160002070470000002C0140000400405A
:101DA0000008004070B5044690F83C00002501286A
:101DB00017D0012684F83C60022084F83D0020689A
:101DC000826822F0770222F47F42826008685028FD
:101DD00038D00DDC20284FD005DC90B3102811D16D
:101DE0004AE0022070BD302846D040280AD13BE0AE
:101DF00060282FD070280DD0B0F5805F03D0B0F5EB
:101E0000005F12D0012584F83D60002084F83C007A
:101E1000284670BDCB68D1E90121206801F04CFC57
:101E20002068816841F0770109E0CB68D1E90121A0
:101E3000206801F041FC2068816841F480418160A4
:101E4000E1E719E0CA684968206801F0E9FC50211F
:101E5000206806E0CA684968206801F0F2FC602149
:101E6000206801F033FCCEE7CA684968206801F0B9
:101E7000D7FC40212068F4E7226801461046F0E7CD
:101E80007047000000B585B00021009101910291DA
:101E9000039100680B49884212D10B48816941F0D7
:101EA000040181618069694600F0040004904FF4E8
:101EB000807000900220019003900448FEF7E8FB38
:101EC00005B000BD002C0140001002400008014098
:101ED00070B5044690F83C0000260D4601280FD04E
:101EE000012084F83C006AB1042A1DD0082A2FD0B2
:101EF0000C2A3FD00126002084F83C00304670BDFB
:101F0000022070BD206801F0E9FB2068816941F082
:101F1000080181612068816921F0040181612068E4
:101F200081692A69114311E0206801F0FFFB2068F4
:101F3000816941F4006181612068816921F48061D7
:101F40008161206881692A6941EA02218161D2E7C1
:101F5000206801F017FC2068C16941F00801C161E7
:101F60002068C16921F00401C1612068C1692A6942
:101F7000114311E0206801F031FC2068C16941F48F
:101F80000061C1612068C16921F48061C16120687C
:101F9000C1692A6941EA0221C161ACE710B50400B8
:101FA00003D094F83D0010B107E0012010BD0020DF
:101FB00084F83C00204600F01EF8022084F83D0022
:101FC000211D206801F0BAFA012084F8460084F847
:101FD0003E0084F83F0084F8400084F8410084F813
:101FE000420084F8430084F8440084F8450084F8F3
:101FF0003D00002010BD7047704770472DE9F0414B
:1020000017460D0004464FF000060CD0042D11D0E9
:10201000082D16D094F84100022819D094F84100F8
:10202000012818D07CE094F83E00022810D094F8E3
:102030003E00F5E794F83F00022809D094F83F00ED
:10204000EEE794F84000022802D094F84000E7E759
:102050000220BDE8F081002F62D0002B60D04649FD
:10206000464ADFF81CC102204DB1042D18D0082DBE
:1020700027D084F841000C2D44D0012679E084F863
:102080003E00606A8162606A3946C262606AC0F876
:1020900030C02268606A3432FEF7C2FA88BB21E0A1
:1020A00084F83F00A06A8162A06A3946C262A06AD1
:1020B000C0F830C02268A06A3832FEF7B1FA00BB1F
:1020C00015E084F84000E06A8162E06A3946C26245
:1020D000E06AC0F830C02268E06A3C32FEF7A0FA3D
:1020E00078B909E02068C16841F400711EE02068F9
:1020F000C16841F4806119E02068C16841F4006161
:1021000014E00DE0206B8162206B3946C262206BC7
:10211000C0F830C02268206B4032FEF781FA08B167
:10212000012096E72068C16841F48051C160012216
:102130002946206801F03EFA12492068884203D1FE
:10214000426C42F4004242642068884208D0B0F1F8
:10215000804F05D00C49884202D00C49884204D1F6
:10216000816801F00701062903D0016841F00101EF
:10217000016030466DE70000CF3500082D360008BD
:1021800065360008002C01400004004000080040B3
:1021900070477047F8B5016804460868CA684B691B
:1021A00010F00F0F4FF0000559D003F0010602F4B4
:1021B0009077374365D0C10705D0D10503D5616C51
:1021C00041F001016164410705D5D90703D0616C75
:1021D00041F002016164810705D5D90703D0616C24
:1021E00041F004016164010707D502F02001314389
:1021F00003D0616C41F008016164616C00293AD040
:10220000800604D5900602D5204601F05BFB2068CD
:102210004069616CC0F38010090700D460B32046A8
:1022200001F029FB20684069400621D52068143060
:1022300050E8001F21F0400140E80012002AF5D1CB
:10224000E06BA8B16D494163E06BFEF7C5F800286B
:1022500011D0E06B416B01B0BDE8F0400847830648
:102260000FD593060DD52046BDE8F84001F02ABBF6
:102270002046FFF78EFFF8BD2046FFF78AFF656412
:10228000F8BD266B2023012E7CD1C6067AD5D60652
:1022900078D508684868009048694FF00206400603
:1022A00040D5E16B086840680004000CE8D0A28DBE
:1022B0008242E5D9E085886920282DD020680C303D
:1022C00050E8001F21F4807140E80012002AF5D187
:1022D0002068143050E8001F21F0010140E800128E
:1022E000002AF5D12068143050E8001F21F0400189
:1022F00040E80012002AF5D184F8423025632068B6
:102300000C3050E8001F21F0100140E80012002AB4
:10231000F5D1E06BFEF73CF86663A08DE18D401AC5
:1023200081B22AE0A08DE18D401A81B2E08D0028B3
:10233000A6D00029A4D022680C3252E8000F20F465
:10234000907042E80007002FF5D12068143050E863
:10235000002F22F0010240E80027002FF5D184F879
:102360004230256320680C3050E8002F22F0100224
:1023700040E80023002BF5D166632046FFF708FFF5
:10238000F8BDFFE705062BD5150629D594F84100C1
:102390002128F5D1A068B0F5805F01D12069B0B1E6
:1023A000206A411C2162216800784860E08C401E50
:1023B0000004000CE084E3D12068C16821F08001B2
:1023C000C1602068C16841F04001C160D8E7206A5F
:1023D0000088C0F308004860206A801C2062E5E79E
:1023E0004006CDD55006CBD5CA68204622F0400223
:1023F000CA6084F8413000F076F8C1E76738000819
:1024000070B5040004D094F84100002510B106E036
:10241000012070BD84F84050204600F023F82420AD
:1024200084F841002068C16821F40051C160204651
:1024300001F0AAFA2068016921F490410161206845
:10244000416921F02A0141612068C16841F40051CD
:10245000C1606564202084F8410084F8420065630F
:10246000002070BD30B585B0002400940194029422
:1024700003940068184988422CD11848816941F4B6
:1024800080418161816901F480410491816941F059
:10249000040181618069124D00F0040004904FF442
:1024A00000700090022001900320039069462846A6
:1024B000FEF7EEF82815CDE9000469462846029497
:1024C000FEF7E6F8002211462520FEF747FA252000
:1024D000FEF736FA05B030BD00380140001002406A
:1024E0000008014070477047FEE70000F0B5002388
:1024F0000A24302537261F4611E000BFB4EB107FB9
:1025000002D905EB107C01E006EB107C01F813C04A
:1025100001EB430C00015B1C8CF80170DBB29342B1
:10252000ECD3F0BD70B5394D01212846FEF7A0F976
:10253000374C022120702846FEF79AF9607004217A
:102540002846FEF795F9A07008212846FEF790F975
:10255000E07010212846FEF78BF9207120212846D3
:10256000FEF786F9607140212846FEF781F9A071D7
:1025700080212846FEF77CF9264DE071012128468E
:10258000FEF776F9207202212846FEF771F9607293
:1025900029152846FEF76CF9A072E9142846FEF7C3
:1025A00067F9E07200201C4A01461154401CC0B279
:1025B0000628FAD300210846235C2BB9431C535448
:1025C000491CC9B2062903D2401CC0B20C28F3D35F
:1025D0001249114B002009780E3301EB810505EB00
:1025E000C101A3F10804491E155C26181D44401CB6
:1025F0006D5CC0B2B5700628F6D3BDE870400649E0
:102600000822891D064801F0B8BB000000080140FF
:10261000C00A0020000C01405E010020D001002013
:10262000E0010020094808B5416941F0010141611C
:102630004069002200F00100009011460C20FEF7D6
:102640008DF9BDE808400C20FEF77AB90010024071
:102650002DE9F04186B000252D48009501950295A1
:102660000395816941F010018161816901F01001D8
:102670000491816941F020018161816901F02001AB
:102680000491816941F004018161816901F00401D3
:102690000491816941F0080181618069012200F0A3
:1026A00008001C4F5403049021463846FEF7E5F815
:1026B000DFF864800122C0214046FEF7DEF8009476
:1026C00001240326CDE90246694638460194FDF708
:1026D000DFFFFF20CDE90005694602940F48FDF7B2
:1026E000D7FF40F63B40CDE90005694602944046DD
:1026F000FDF7CEFFC020009001AA112082E8510012
:1027000069464046FDF7C4FF06B0BDE8F081000011
:102710000010024000100140000C01400008014080
:102720000A4810B5084901604FF0FF3141604FF48D
:1027300080718160FFF7AEF9002803D0BDE810403A
:10274000FDF724BE10BD00000028004090090020C5
:1027500010B596B000240F94109411941294139411
:102760001C2108A81494FDF7F8FC20216846FDF709
:10277000F4FC27482549C0E900145921C0E9024169
:10278000046144618461FFF779FA08B1FDF7FEFD49
:102790004FF480500F900FA91D48FFF703FB08B1BD
:1027A000FDF7F4FD1A48FFF7F9FB08B1FDF7EEFD60
:1027B000139413A916481494FFF72CFA08B1FDF7E7
:1027C000E5FD6020CDE908040A940B940C940D9467
:1027D000002208A90E480E94FFF77AFB08B1FDF716
:1027E000D5FD00944FF40050CDE9044002940194CB
:1027F0000394694606480794FFF7E1F908B1FDF72D
:10280000C5FD0348FFF73EFB16B010BD002C01408C
:10281000A409002010B586B0002417480094019444
:102820000294039404941349059401600321C0E9C0
:1028300001144FF6FF71C0E9031480218161FFF795
:102840001DFA08B1FDF7A2FD4FF4805000906946D3
:102850000948FFF7A7FA08B1FDF798FD049404A909
:1028600005480594FFF7D6F9002801D0FDF78EFD45
:1028700006B010BD00040040EC0900200C4810B563
:102880000A4901604FF4E1314160002181600C226E
:10289000C160C0E904128161C161FFF7B1FD002888
:1028A00003D0BDE81040FDF771BD10BD00380140F8
:1028B000780A002010B500220B490C4801F0D4FA28
:1028C00008B1FDF763FD0A49084801F0A0FC08B112
:1028D000FDF75CFD054801F0EFFC002803D0BDE8E2
:1028E0001040FDF753BD10BD10010020E001002095
:1028F00014000020FEE7FEE770B50024002120460A
:1029000000F0D5F80025002000F05BF96D1CEDB259
:10291000802DF8D3641CE4B2082CEFD370BD000006
:1029200010B5064C012280212046FDF7A6FF204667
:102930000122BDE810404021FDF79FBF000C01407F
:102940002DE9F0410024124E0746802525FA04F2B5
:102950003A4040213046FDF790FF01228021304669
:10296000FDF78BFF002280213046FDF786FF641CB7
:10297000E4B2082CEAD3012280213046FDF77DFF26
:102980003046BDE8F04100228021FDF776BF00000F
:10299000000C014010B50B4C012240212046FDF7F0
:1029A0006CFF012280212046FDF767FF00224021B5
:1029B0002046FDF762FF20460022BDE8104080213E
:1029C000FDF75BBF000C014010B5094C002240210F
:1029D0002046FDF752FF012280212046FDF74DFFE2
:1029E00020460122BDE810404021FDF746BF00000F
:1029F000000C014010B500204FF47A720021491CF0
:102A00009142FCD3401C9042F8D3FFF789FFAE20DF
:102A100000F0C6F8D52000F0C3F8802000F0C0F820
:102A2000A82000F0BDF83F2000F0BAF8D32000F055
:102A3000B7F8002000F0B4F8402000F0B1F8A12071
:102A400000F0AEF8C82000F0ABF8DA2000F0A8F8EB
:102A5000122000F0A5F8812000F0A2F8CF2000F0AD
:102A60009FF8D92000F09CF8F12000F099F8DB20C5
:102A700000F096F8302000F093F8A42000F090F8D1
:102A8000A62000F08DF88D2000F08AF8142000F0C8
:102A900087F8AF2000F084F8BDE81040FFF72CBFA6
:102AA0000246012000E05043491EFCD2704710B599
:102AB0000C4640F0B00000F073F8102040EA14100B
:102AC00000F06EF804F00F00BDE8104000F068B8A8
:102AD0002DE9F0410746CE004000083E801E154615
:102AE0004FF0FF38F1B2C0B2FFF7E1FF1148002408
:102AF00000EB05152819A0F5805090F8000E00F0A5
:102B000060F8641CE4B2082CF4D308EB4700F1B27F
:102B1000C0B2FFF7CCFF00242819A0F5805090F830
:102B2000080E00F04EF8641CE4B2082CF4D3BDE8A3
:102B3000F0810000225000082DE9F04700241D46D6
:102B40001646884681460A2713E0291B0A20491E9B
:102B5000FFF7A6FFB6FBF0F0B0FBF7F107FB1102A1
:102B600008EB0400C1B248463032FFF7B1FF641CE5
:102B7000E4B2AC42E9D3BDE8F0872DE9F041154657
:102B80000E460746002406E03019C1B23846FFF76A
:102B90009FFF641CE4B22A5D002AF5D1BDE8F081F4
:102BA00010B50446FFF7F6FE7820FFF7C9FE0020B7
:102BB000FFF7C6FE2046FFF7C3FEBDE81040FFF753
:102BC00003BF10B50446FFF7E5FE7820FFF7B8FE17
:102BD0004020FFF7B5FE2046FFF7B2FEBDE81040EB
:102BE000FFF7F2BE2DE9F84F044640F68F7B48F61A
:102BF0000F794FF480684FF0000ABDE1B0F844103F
:102C000011F00F0539D030F8256031047ED530F849
:102C1000251001EA0B0141F0800120F8251005EB99
:102C2000850004EBC00797F85C0107F5A87700283A
:102C30006DD0F87802286BD03978226832F82100FC
:102C400048F68F73184048F2C003184322F8210059
:102C50003978206830F82120B0F8503052047DD502
:102C6000022202EBC1015A1808EB4201415A8905C0
:102C7000890D009173D03A89DDE0C9062BD4018813
:102C800001EA090141F400410180206804F11005C6
:102C9000B0F85030217C022202EBC1015A1808EB37
:102CA0004201405AC0F30900E062616A0844606270
:102CB00000212046FDF7A3FE607B00289DD0A86977
:102CC00000289AD1607B216840F08000A1F84C0078
:102CD00084F80DA050E1018804F5A8750A0521D5F6
:102CE000B0F850202B78062101EBC3010A4408EB11
:102CF0004201405A04F52671C0F30903EB61EA88EA
:102D0000206802F001F92068018802E0AEE06EE080
:102D10007EE001EA0B0141F0800101802046FEF7D0
:102D2000B9FA29E10904D5D5018801EA0B0141F07E
:102D3000800101802068B0F850202B78062101EB3B
:102D4000C3010A4408EB4201405A83059B0DEB6125
:102D500010D0696971B1EA88206801E05FE05DE048
:102D600002F0D2F8E96968690844686100212046E8
:102D7000FDF74EFE216808880205ABD4C0F3013090
:102D80000328A7D0B1F850000844B0F80C14C1F3E0
:102D90000901A0F80C142A6900F20C403E2A09D956
:102DA0005109D20600D1491E02884FF4004343EA7C
:102DB000812109E0B2B15108D20700D0491C028834
:102DC0004FF6FF7303EA81210A43028021680888D5
:102DD0004BF68F72104080F4405048F2800210434E
:102DE0000880C9E0018841F400410180EEE72068D5
:102DF000B0F850203B78062101EBC3010A4408EBF0
:102E00004201415A8905890D009118D0FA8812E0D3
:102E1000324639462046FDF757FE00900FE0062265
:102E200002EBC1015A1808EB4201415A8905890D8C
:102E3000009104D07A897969009B02F065F8F869FD
:102E400000990844F8617969009808447861B86984
:102E500018B139690098814204D939782046FDF7C4
:102E6000D7FD03E03946206801F0CAFD30062ED5B3
:102E700005EB850004EBC001206830F8252002EA4C
:102E8000090242F4004220F82520C87C10310128B4
:102E90001ED0F0056CD42068B0F850300D780222B6
:102EA00002EBC5021A4408EB4202805A8A69C0F359
:102EB0000900824255D9121A8A6154D04A690244E3
:102EC0004A61CA691044C861206801F099FD53E065
:102ED000C1F818A0087B524608B3700620D5487880
:102EE00010B1012812D03AE02068B0F85020104408
:102EF0000A7800EB0210B0F80424C2F30902A0F82B
:102F00000424B0F8042442F4004206E02068B0F83B
:102F1000503018440B7800EB0310A0F804241EE096
:102F20004B78206813B1012B11D018E0B0F8502075
:102F300010440A7800EB0210B0F80C24C2F3090226
:102F4000A0F80C24B0F80C2442F4004205E0B0F8DC
:102F5000503018440B7800EB0310A0F80C240978CB
:102F600002E0C1F818A0E9B22046FDF748FD03E0F1
:102F700032462046FDF71BFE2068B0F844100904D5
:102F80003FF53CAE0020BDE8F88F70472DE9F84FC3
:102F9000664C8246664B2578664804F1240200217F
:102FA0002DB1654D297019700170108908E05F4DD1
:102FB0001B78163535F813306380007832F810002E
:102FC000A080E088A288904203D8401CE080BDE841
:102FD000F88F564FE1800B37FE1C894638783178E0
:102FE000B51FDFF85881884207D002D9A0F101004F
:102FF00001E000F10100387016E028786978AA78BD
:103000000144D8F80000406A10440844FDF796F8DF
:10301000FDF78AF8618890FBF1F201FB1200307035
:10302000387831788842E8D078787178884207D04B
:1030300002D9A0F1010001E000F10100787029E05F
:1030400028786978AA780144D8F80000406A1044CA
:103050000844FDF773F8FDF767F8628890FBF2F11A
:1030600002FB110011E028786978AA780144D8F8A9
:103070000000406A10440844FDF760F8FDF754F87A
:10308000618890FBF1F201FB120070707878717822
:103090008842E8D0B878B178884207D002D9A0F148
:1030A000010001E000F10100B87021E028786978A2
:1030B00000EB0102D8F80000A978406A08441044E7
:1030C00008E028786978AA780144D8F80000406AB6
:1030D00010440844FDF732F8FDF726F8618890FBAC
:1030E000F1F201FB1200B070B878B1788842E8D0F4
:1030F000B4F80B00ADF80000607B8DF8020050467C
:10310000009900F0AFF8207800283FF460AF6088A5
:103110003178401E8142F8D071788142F5D0B17883
:103120008142F2D084F8009051E70000A001002015
:10313000D1010020D2010020D0010020EC090020A4
:1031400070B51B481A4C0025163C0088608004F1BD
:1031500024002A460088A080E5800120207004F128
:1031600008011448FEF729FC002204F1110111485E
:10317000FEF7FCFB1048FEF7EDFD04F108000178B6
:103180004278807811440C4A1268526A104408440C
:10319000FCF7D4FF04F10B0004F10E01057045703B
:1031A0008570A078401E08704870887070BD00005F
:1031B000B601002090090020EC09002010B5FFF7AF
:1031C00031FAFFF7C5FABDE810404FF4A873024A80
:1031D00000210248FEF712BFCC0A0020A4090020FB
:1031E00030B50D283BD81E4C002300EB4000C1F346
:1031F0000725012204EB4014C3F1070002FA00F096
:10320000054201D03A2000E0192044F823005B1C5D
:10321000DBB2082BF0D308205FFA81F3C0F10F0571
:1032200002FA05F52B4201D03A2500E0192544F8B1
:103230002050401CC0B21028F0D31020C1F3074129
:10324000C0F1170302FA03F3194201D03A2300E058
:10325000192344F82030401CC0B21828F0D330BDE8
:10326000CC0A002070B50E460546002405E0E0B209
:103270003146FFF7B5FF641CA4B2AC42F7D300F0AF
:1032800007F9BDE87040FFF799BF002102E00A3856
:10329000C0B2491C0A28FAD2090740EA11607047F7
:1032A0002DE9F04104460025C07B627BA37B42E010
:1032B000012A16D0032A14D0052A12D0072A10D0CA
:1032C000082A0ED00A2A0CD00C2A0AD0042A10D0C0
:1032D000062A0ED0092A0CD00B2A0AD0022A0DD0B9
:1032E00028E01F2B0CD30C2A05D101221346401CC9
:1032F00020E01E2B04D30123521C1BE01C2B02D206
:1033000003F1010316E011D183B29E0710D16426A8
:10331000B3FBF6F706FB173636B94FF4C876B3FBA6
:10332000F6F706FB17331BB91D2303E01D2B01D154
:10333000032201236D1C8D42BAD3D1B2E0736173B5
:10334000DAB2A27300F050F82073BDE8F08170B5D6
:103350000446FDF797FA05464FF47A7606E0FDF746
:1033600091FA401BB04201D9032070BD206840682B
:103370008006F4D52068416841F0100141600020CA
:1033800070BD000070B504460068416821F010016E
:103390004160FDF777FA05464FF47A7607E000BF03
:1033A000FDF770FA401BB04201D9032070BD2068C0
:1033B00040688006F4D5002070BD0168086A496A3B
:1033C00089B241EA00407047006881698AB2C169E8
:1033D0008BB2816989B28A4203D0C06961F31F4010
:1033E000704743EA02407047F0B56424C1EBC10363
:1033F0000927A500072603EB01130329B3FBF7F107
:1034000000F5FA60114401440AD2401EB0FBF4F208
:1034100001EB9001B0FBF5F0891A0844001D08E0AB
:10342000B0FBF4F201EB9001B0FBF5F0891A08440F
:10343000801CB0FBF6F106FB1100C0B2F0BD70B508
:103440000D4606460024FFF782FF48B93168280C74
:1034500008623168A8B248623046FFF793FF00B1B6
:103460000124204670BD70B50D4606460024FFF7C6
:103470006EFF48B93168280C88613168A8B2C8610C
:103480003046FFF77FFF00B10124204670BD0000E9
:1034900000200649024600BF01EB8003401CC0B279
:1034A000C3F8E0241828F7D370470000CC0A0020A6
:1034B0007047FDF7EDB930B593B028216846FCF7A9
:1034C0004CFE14210AA8FCF748FE00240F940920A2
:1034D000012110940090119412944FF480300491C3
:1034E0000691CDE901040225CDE907504FF4E01023
:1034F00009906846FEF7AAF808B172B6FEE70F20F9
:10350000CDE90A054FF48060CDE90C4002210AA8FC
:103510000E94FDF7BFFF08B172B6FEE711200F90C1
:103520004FF40070109012940FA8FDF73DFF002893
:1035300001D072B6FEE713B030BD7047F0B5026837
:10354000194B1A4C1A4D4FF08047984205D0B8429B
:1035500003D0A04201D0A84203D122F070064A68ED
:103560003243984205D0B84203D0A04201D0A842CD
:1035700003D122F44074CA6822434C6922F08002CD
:10358000224302608A68C2620A688262984201D15C
:1035900009690163012141610169C90703D001691A
:1035A00021F001010161F0BD002C01400004004048
:1035B0000008004010B501F01F030121046A994082
:1035C0008C430462016A9A401143016210BD10B538
:1035D000446A0121626A824205D121778069F8B983
:1035E00084F83E101CE0A26A824206D102222277B1
:1035F0008069A8B984F83F1012E0E26A824206D1DD
:1036000004222277806958B984F8401008E0226BC0
:10361000824205D108222277806908B984F84110D6
:103620002046FEF7E9FC0020207710BD10B5446A63
:10363000616A814201D101200DE0A16A814201D17C
:10364000022008E0E16A814201D1042003E0216BFD
:10365000814201D1082020772046FEF7CEFC0020D1
:10366000207710BD10B5446A0121626A824203D1FD
:10367000217784F83E1019E0A26A824204D1022028
:10368000207784F83F1011E0E26A824204D10420DE
:10369000207784F8401009E0226B824204D1082090
:1036A000207784F8411001E084F83D102046FEF7B1
:1036B000E7FB0020207710BD10B5846842EA0322A2
:1036C00024F47F440A432243826010BD826822F0C2
:1036D00070020A4342F007018160704730B5036A07
:1036E000026A22F0010202624268846924F07305D2
:1036F0000C682C4323F002058B682B430A4DA8422B
:103700000BD123F00805CB6822F440722B434D699E
:1037100023F0040315438A692A434260846149689F
:103720004163036230BD0000002C014030B5026AE5
:10373000036A23F010030362436884690D6824F46C
:10374000E64444EA05248D6822F0200242EA05128C
:103750000B4DA8420ED1CD6822F0800242EA05123C
:103760004D6923F4406343EA85038D6922F04002EA
:1037700043EA85034360846149688163026230BD26
:10378000002C014030B5036A026A22F480720262A2
:103790004268C46923F4007324F073050C682C4359
:1037A0008D6843EA05230C4DA8420ED1CD6823F461
:1037B000006343EA05234D6922F4405242EA0512B0
:1037C0008D6923F4806342EA05124260C46149684E
:1037D000C163036230BD0000002C014030B5046AB3
:1037E000026A22F4805202624268C3690D6823F4BF
:1037F000E64343EA05238D6824F4005444EA053483
:10380000064DA84204D14D6922F4804242EA851255
:103810004260C36149680164046230BD002C01400C
:1038200010B5036A046A24F001040462846924F078
:10383000F00444EA021423F00A020A43846102629B
:1038400010BD10B5036A046A24F010040462846990
:1038500023F0A00324F4704444EA023243EA011145
:103860008261016210BD10B5406A0021C185C1842A
:10387000FEF78FFC10BD01680C3151E8002F22F4D7
:10388000907241E80023002BF5D10168143151E812
:10389000002F22F0010241E80023002BF5D1016B3B
:1038A000012909D101680C3151E8002F22F01002E2
:1038B00041E80023002BF5D1202180F8421000219F
:1038C0000163704708B590F84210222901D0022008
:1038D00008BD82684FF480539A4201D1016921B139
:1038E000816A9A421BD04AB10AE00268816A526832
:1038F000C2F308020A80816A891C08E0026972B179
:103900000268526802F07F020A70816A491C816273
:10391000C18D491E0904090CC18503D01BE0026852
:103920005268F1E70168CA6822F02002CA600168A3
:10393000CA6822F48072CA6001684A6922F00102F2
:103940004A61202180F8421000214163026B012A64
:1039500003D0FEF7C7FD002008BD016301680C31EC
:1039600051E8002F22F0100241E80023002BF5D18E
:1039700001680A68D20602D50A6849680091818DFB
:10398000FEF706FCE7E7000070B504460068016931
:10399000E26821F44051114301612169A0680843A4
:1039A000616908432168CA6841F20C639A43024383
:1039B000CA6020684169A26921F4407111434161E4
:1039C0001E492068884202D1FDF70AFE01E0FDF79A
:1039D000F7FD00EBC00101EB00126068642180007C
:1039E000B2FBF0F3B3FBF1F36FF018067343B2FBD5
:1039F000F0F5B2FBF0F605EB8305322303EB05157A
:103A0000B5FBF1F5B6FBF1F605F0F00505EB061593
:103A1000B2FBF0F6B2FBF0F0B0FBF1F06FF0180281
:103A2000504306EB800003EB0010B0FBF1F021687F
:103A300000F00F002844886070BD0000003801408D
:103A40000148FEF7A7BB0000780A002010B5D0F8A7
:103A5000B42252689047002010BD134610B50A46A4
:103A6000002100F01CFB002010BD134610B50A46D3
:103A7000002100F0AFFB002010BD10B504468021EE
:103A800000F08DFB2046BDE81040002100F087BB10
:103A900010B505210023C0F894121A46194600F00B
:103AA000FEFA002010BD10B50223C261C0F89432A6
:103AB000026213460A46002100F08CFB002010BD74
:103AC00010B504210023C0F894121A46194600F0DC
:103AD00081FB002010BD000010B50A46024903A07A
:103AE00000F0D8F8004810BDA40400204849442044
:103AF000436F6E66696700001220088000487047B7
:103B00003001002010B50A46024903A000F0C2F8B7
:103B1000004810BDA404002048494420496E746543
:103B200072666163650000000420088000487047E9
:103B30002C01002010B50A46024903A000F0AAF8A3
:103B4000004810BDA40400204B6579426F61726487
:103B50000000000010B50A46024903A000F09AF8E0
:103B6000004810BDA40400204B6579426F61726467
:103B70000000000010B51A2008800A480168001DE6
:103B80000468001D0068081809D008220649FEF7DD
:103B9000ADFC0549042210312046FEF7A7FC02487F
:103BA000801E10BDE8F7FF1F46010020F8B504464F
:103BB0000020ADF8000048880D46010A082948D2C7
:103BC000DFE801F04704091747473C45D4F8B01235
:103BD000207C0A6819E0207C02260028D4F8B40270
:103BE00005D0C16A68468847014646703EE0816A52
:103BF000F8E7C0B206282CD2DFE800F0030A101460
:103C0000181CD4F8B002426805E0694690471CE0F1
:103C1000D4F8B0028268E2B1207CF6E7D4F8B002B2
:103C2000C268F8E7D4F8B0020269F4E7D4F8B00249
:103C30004269F0E7D4F8B0028269ECE7207C40B931
:103C4000D4F8B402416B6846884701460EE0207CF8
:103C500020B129462046FFF710FFF8BDD4F8B40282
:103C6000016B68468847014607204870BDF8000090
:103C700048B1EA8852B1824200D90246ADF800202C
:103C80002046FFF710FFE8880028E6D12046FFF71E
:103C900017FFF8BD70B5002300281ED0044600258C
:103CA00002E06D1CEDB2641C2678002EF9D10224CE
:103CB00004EB450414801278CA545B1C0322CA54D6
:103CC00000245B1C06E0CA545B1CDAB28C54521C04
:103CD000D3B2401C0278002AF5D170BD01004FF02C
:103CE000000004D0012901D0022901D00220704730
:103CF00001207047D0F8B8020021017308467047D0
:103D000070B50446812100F0CDF80025E562D4F8B5
:103D1000B80218B100F02DFCC4F8B852002070BDF4
:103D20000A21018000487047C40000202221018040
:103D3000004870474C000020222101800048704755
:103D4000700000202221018000487047940000206C
:103D500010B5044604230322812100F094F90120C8
:103D6000E062102000F006FCC4F8B80218B100218F
:103D70000173084610BD022010BD10B5134690F81F
:103D80009C42D0F8B822032C07D1147B2CB9012413
:103D900014730A46812100F01DFA002010BD0000B6
:103DA00038B503460022D0F8B802ADF8002014461A
:103DB0000A7812F0600216D0202A4AD14A78022AE4
:103DC0000ED0032A06D00A2A06D00B2A41D18978C0
:103DD000016042E001222BE04988090A41603CE091
:103DE0000122011D25E04A7832B1062A0BD00A2AA9
:103DF00023D00B2A2DD128E093F89C02032828D148
:103E00000222694615E048882222B2EB102F05D124
:103E1000CA883F2A00D93F22124809E02122B2EB8A
:103E2000102F16D10F48CA881838092A00D909223C
:103E300001461846FFF737FE0FE093F89C22032A4D
:103E400007D1012200F10801F3E793F89C22032A2D
:103E500005D01846FFF711FE0224204638BD8978A8
:103E60008160FAE7D000002010B580B1D0F8B432FC
:103E700013B10023C0F8B43209B1C0F8B012012167
:103E800080F89C12027000F0BBF8002010BD0220E8
:103E900010BD10B5D0F8C002FCF7E9FDBDE8104038
:103EA000FFF71CBF10B5D0F8C002FCF7BBFDBDE8A2
:103EB0001040FFF713BF2DE9F0411746044651B1FA
:103EC000D4F8B40242691AB194F89C02032851D084
:103ED0000220BDE8F081D4F89432002504F11400EA
:103EE000022B03D0042B3AD0C3B33CE0D0E90363E8
:103EF0009E4207D9F11AC1608AB239462046FFF7BF
:103F0000B4FD12E08068B0FBF3F103FB110199B935
:103F1000984211D3D4F8981288420DD2002211464B
:103F20002046FFF7A2FDC4F8985200231A4619460E
:103F3000204600F0B4F816E0D4F8B402C16829B104
:103F400094F89C02032801D120468847802120460E
:103F500000F025F92046FFF79BFD04E0FFE78021F4
:103F6000204600F01CF994F8A002012804D184F83E
:103F7000A05201E0204690470020AAE770B5154600
:103F8000044649B1D4F8B40282691AB194F89C028B
:103F9000032830D0022070BDD4F8941204F5AA7022
:103FA000032902D005291ED027E0D0E903218A4247
:103FB0000BD9531AC3600846834200D303469AB212
:103FC00029462046FFF749FD17E0D4F8B4020169FD
:103FD00029B194F89C02032801D120468847204645
:103FE000FFF76EFD09E000200146C4F89402204668
:103FF00000F0D5F801E020469047002070BD000099
:1040000010B517490446C1F8D402C0F8C0121548CB
:104010000860082008710220887100208872C87228
:1040200008730846FDF78CF808B1FCF7AFF90022D9
:10403000D4F8C0021823114604F53074FCF7C0FC14
:104040005823002280212068FCF7BAFC4FF48073CB
:10405000002281212068FCF7B3FC002010BD000085
:10406000B8060020005C00400A0601F07F01D0F88D
:10407000C00201EB810100EBC10001D5807C7047DB
:1040800090F85201704710B51C461346D0F8C00294
:104090002246FCF728FFBDE81040FFF71FBE10B511
:1040A000D0F8C002FCF74BFFBDE81040FFF716BE8A
:1040B00070B50022044640231146FFF7E4FF402676
:1040C0000125C4F864613346002280212046C4F8EB
:1040D0005851FFF7D8FF6662A56184F89C52002012
:1040E000C4F894026060C4F8A402D4F8B80228B1FD
:1040F000D4F8B4020021426820469047002070BDE9
:1041000090F89C12042903D190F89D1280F89C121B
:104110000020704710B590F89C12032904D1D0F804
:10412000B412C96901B18847002010BD0174002094
:10413000704710B5D0F8C002FDF799F8BDE81040FF
:10414000FFF7CCBD70B5044600F52A70054600F0B7
:104150004AF80120C4F89402B4F8AE02C4F89802F8
:1041600094F8A80210F01F010AD001290DD00229ED
:1041700010D000F08001204600F011F8002070BD42
:104180002946204600F09DF8F8E72946204600F031
:10419000C9F9F3E72946204600F01CF9EEE710B50F
:1041A000D0F8C002FCF7E2FEBDE81040FFF796BD74
:1041B00010B5D0F8C002FDF774F8BDE81040FFF765
:1041C0008DBD90F89C1280F89D12042180F89C12FD
:1041D0000020704710B5D0F8C002FCF7FFFEBDE824
:1041E0001040FFF77BBD0A7802704A7842708A78E7
:1041F000CB7802EB032242800A794B7902EB03224F
:1042000082808A79C97902EB0121C1807047024618
:10421000002011B1C2F8B41270470220704710B5E7
:10422000D0F8B42202241AB11268904700B90024D1
:10423000204610BD70B50E461E4D89780446297083
:10424000012931D894F89C0202280BD003280FD002
:1042500031462046FFF711FC29782046BDE8704022
:10426000FFF7F4BBD9B10320616084F89C0209E038
:1042700071B16068884212D0C1B22046FFF7E6FBF8
:10428000297861602046FFF7CAFF02280CD006E0BB
:10429000022084F89C0220466160FFF7D7FB20468D
:1042A000BDE87040FFF70CBC31462046BDE87040C9
:1042B000FFF7E3BB1000002010B5FFF779FF0020E7
:1042C00010BD2DE9F0410A78002612F0600208D0F6
:1042D000202A01D0402A70D1D0F8B42292689047A9
:1042E0006DE04B78002201250A2B66D2DFE803F04F
:1042F000405D6557650805652C29FFF757FC5EE0B2
:1043000004468888D8B9C888C8B94888802816D291
:1043100000F07F0794F89C02032810D084F89E7266
:1043200039462046FFF705FF2046FFF7C9FB1FB1BE
:10433000022084F89C0242E084F89C523FE0204630
:104340003BE0FFF777FF3AE0CB88012B35D190F8BF
:104350009C32012B04D0022B02D0032B2DD104E080
:104360008260012200F1080116E00122011D13E024
:1043700090F89C22012A03D0022A01D0032A1CD1E2
:10438000CA88022A19D1C560D0F8A41209B1032144
:10439000C160022200F10C01FFF785FB0FE04988A4
:1043A00001290CD1C0F8A45211E090F89C32012BE5
:1043B00008D0022B06D0032B04D0FFF75EFB30465B
:1043C000BDE8F08149880129F9D1C0F8A422FFF79E
:1043D00077FBF4E72DE9F0410A4604461078002700
:1043E000097910F060030AD0202B01D0402B50D166
:1043F000D4F8B40211468368204698478FE0C0F392
:104400004110012806D05078D0B301282AD00328C3
:104410003FD107E0D4F8B402114683682046BDE8D6
:10442000F041184794F89C02022802D0032872D168
:104430000AE071B380296ED02046FFF7B0FE8021DC
:104440002046FFF7ACFE6AE0508838B931B18029C8
:1044500004D0D08810B92046FFF7A1FE2046FFF710
:104460002FFB5CE094F89C020228E2D0032852D192
:10447000508898BB4806F1D02046FFF70AFDEDE7CB
:10448000FFE794F89C020026022803D0032842D1BB
:1044900012E040E009B180293DD1080601F07F001B
:1044A00000EB800004EB800101D5143101E001F53F
:1044B000AA7102220E602AE0080601F00F0000EB4C
:1044C000800004EB80000AD5806920B301F07F00F2
:1044D00000EB800004EB800514350BE01FE0D0F802
:1044E0005801C0B101F07F0000EB800004EB8005B3
:1044F00005F5AA7541B1802906D02046FFF7B4FD25
:1045000010B10120286000E02E60022229462046DA
:10451000FFF7C9FA03E011462046FFF7AEFA384626
:10452000BDE8F08170B5054608780C4610F06000D3
:1045300003D0202801D0402816D195F89C020128EC
:1045400003D0022801D003280ED1207901280BD8EE
:10455000D5F8B402826828469047E188014306D125
:104560002846FFF7ADFA02E02846FFF786FA00205A
:1045700070BD704700487047A40600202DE9F04741
:104580000C78002630F8243048F68F121340CA7891
:10459000002A78D0012A7CD0022A02D0032A75D0C2
:1045A000012648F28002134320F824300D7830F8B9
:1045B000253048F68F7423402B43134320F82530D1
:1045C0000D7B48F2C00948F6BF734CF2800A4BF6E7
:1045D0008F77EDB3CD7891F800C0022D30F82C50D4
:1045E0007DD048F68F6805EA0805154320F82C5061
:1045F000B0F8505091F800C0054405EB0C15B1F827
:1046000008C02CF0010CA5F800C4B0F8505091F887
:1046100000C0054405EB0C15B1F80AC02CF0010CE4
:10462000A5F808C44D78002D7ED00D7830F825C04F
:104630005FEA4C4C07D530F825C00CEA040C4CEA74
:104640000A0C20F825C091F800C030F82C5000E08A
:1046500022E06D0606D530F82C50254045EA0905C4
:1046600020F82C50CC780D78012C30F8254004EA45
:1046700003047CD084F02003134320F82530C1E0EC
:1046800001E006E002E043F400738AE743F4C0630C
:1046900087E743F4806384E74D784DB3B0F850501A
:1046A0000F78054405EB0715CF8827F00107A5F81B
:1046B00000740F7830F827506D0606D530F8275073
:1046C000254045EA090520F82750CC78012C07D071
:1046D0000C7830F82410194081F0200104E064E0E7
:1046E0000C7830F824101940114320F8241090E081
:1046F000B0F850300D78034403EB0513CD8825F056
:104700000105A3F80854B0F850300D78034403EBCA
:104710000513B3F80C54C5F30905A3F80C540D693F
:1047200003F20C433E2D00E045E00BD94FEA551C47
:10473000ED0601D1ACF1010C1D884FF4004848EAA8
:104740008C2C0BE035B34FEA550CED0701D00CF182
:10475000010C1D884FF6FF7808EA8C2C45EA0C0501
:104760001D800D7830F825305B0408D500E046E068
:1047700030F82530234043EA0A0320F82530097831
:1047800061B130F821303B4083F40053134320F8EB
:1047900021303EE01D8845F40045E1E701883940BD
:1047A00081F440511143018033E0254048F28018E4
:1047B00045EA08051AE791F800C030F82C506D045E
:1047C00006D530F82C50254045EA0A0520F82C5033
:1047D00091F800C030F82C506D0606D530F82C50FA
:1047E000254045EA090520F82C500D7830F8254081
:1047F0003C4084F44054144320F8254070E71443AF
:1048000020F825400B7830F823103940114320F868
:1048100023103046BDE8F087002070472DE9F043B3
:1048200091F80C804F780A7848F6BF7C4BF68F7968
:1048300048F2800348F2C0054CF2800648F68F74B7
:10484000B8F1000F28D0002F30F822704FEA474708
:1048500048D0002F05DA30F822702740374320F87F
:1048600022700A7830F822707F0605D530F8227061
:1048700027402F4320F822700D7830F82520224061
:10488000324320F825200C7830F8242002EA0C026C
:104890001A4320F824201AE07FB130F8226076060F
:1048A00005D530F8226026402E4320F822600A7891
:1048B00030F8221001EA0C010EE030F822506D04AD
:1048C00005D530F822502540354320F822500A788B
:1048D00030F8221001EA0901194320F822100020C3
:1048E000BDE8F083002F05DA30F822702740374307
:1048F00020F822700A7830F82260760605D530F864
:10490000226026402E4320F822600E7830F82620C0
:1049100022402A4320F826200C7830F8242002EA8E
:1049200009021A4320F82420C1E700207047002024
:104930007047012120F8401F002101808180018201
:104940000846704730F8401F21F43F4101800020A5
:1049500070470020704730B50A7BB2BB4A7848F6F2
:104960008F7548F28004C2B10B7830F823205206CC
:1049700007D530F823202A4048F2C0052A4320F802
:104980002320CA78012A20D00A7830F8221048F66D
:10499000BF73194081F0200114E00A7830F822300A
:1049A0005B0407D530F822302B404CF280052B43B6
:1049B00020F822300A7830F822104BF68F73194015
:1049C00081F44051214320F82210002030BD10B561
:1049D0004A780978002A48F2800330F8212005D06F
:1049E00048F6BF74224082F0100204E04BF68F7448
:1049F000224082F480521A4320F82120002010BD6A
:104A00002DE9F0470D464B78097B04464FF000092D
:104A100048F68F7248F2800A4FF400474FF6FF784D
:104A2000012B09D000296FD0E87802286DD0012829
:104A30006CD00120BDE8F087AE692869864200D9B4
:104A4000064691B1E97802291ED0286A801B2862A7
:104A5000287834F820104906B4F85010214401EBAE
:104A6000001073D5A0F80C6416E1B3B2EA882046B2
:104A7000696900F067FAB4F850002978204400EB27
:104A80000110A0F804640DE1296A814277D92978E0
:104A900034F82100104048F28012104324F821001D
:104AA000286A801B2862287834F820104906697823
:104AB00071D511B101292AD030E0B4F85010214449
:104AC00001EB0010B0F80C14C1F30901A0F80C14AC
:104AD00000F20C403E2E07D97109F20600D1491EA2
:104AE000028847EA812107E04EB17108F20700D041
:104AF000491C028808EA81210A4302800EE00188ED
:104B000041F40041018009E0F1E020E195E1B4F8D1
:104B10005020111901EB0010A0F80C646A89B3B29F
:104B20002046696900F00EFA6869304468612969B5
:104B3000286A884202D9801B286202E00646C5F82E
:104B40002090687818B101282BD032E02FE0B4F81B
:104B500050002978204400EB0110B0F80414C1F390
:104B60000901A0F8041400F204403E2E08D971098E
:104B7000F20600D1491E028847EA812108E0A1E03F
:104B800056B17108F20700D0491C028808EA812159
:104B90000A4302800DE00EE0018841F400410180EB
:104BA00007E0B4F850002978204400EB0110A0F889
:104BB00004642A8971E011B1012927D02DE0B4F8ED
:104BC0005010214401EB0010B0F80414C1F30901A6
:104BD000A0F8041400F204403E2E07D97109F20631
:104BE00000D1491E028847EA812107E04EB17108D1
:104BF000F20700D0491C028808EA81210A4302809A
:104C00000BE0018841F40041018006E0B4F8501047
:104C1000214401EB0010A0F804642A89B3B22046B5
:104C2000696900F08FF96869304468612969286A08
:104C3000884202D9801B286202E00646C5F820900F
:104C4000687810B1012836D026E0B4F850002978F1
:104C5000204400EB0110B0F80C14C1F30901A0F8D6
:104C60000C1400F20C403E2E07D97109F20600D157
:104C7000491E028847EA812107E04EB17108F20718
:104C800000D0491C028808EA81210A43028003E01F
:104C9000018841F4004101806A89B3B22046696904
:104CA00000F050F9297834F8210048F6BF7210401E
:104CB00080F030000FE1B4F850100819297800EBAB
:104CC0000110CFE62A7834F8220048F68F631840A6
:104CD00040EA0A0024F82200B4F850002A78204460
:104CE00000EB02108BB2A0F804342A89D6E7A96938
:104CF0002869814202D9091AA96102E00846C5F86B
:104D00001890B4F850102A78214401EB0211B1F840
:104D10000C24C2F30902A1F80C2401F20C413E2834
:104D20007DD94209C00600D1521E088847EA822276
:104D30000AE0088840F4004007E04208C00700D0BD
:104D4000521C088808EA822210430880BBE033BB6B
:104D5000B4F850002978204400EB0110B0F8041496
:104D6000C1F30901A0F80414296900F204403E29A6
:104D700007D94B09C90600D15B1E018847EA832386
:104D800007E041B14B08C90700D05B1C018808EA65
:104D90008323194302E0018841F4004101806878CF
:104DA00010B1012828D030E0B4F850002978204410
:104DB00000EB0110B0F80C14C1F30901A0F80C14B9
:104DC000296900F20C403E2907D94B09C90600D1D8
:104DD0005B1E018847EA832307E041B14B08C907FE
:104DE00000D05B1C018808EA8323194302E0018894
:104DF00041F40041018008E0B4F850100819297806
:104E000000EB0110298AA0F80C14E869C0B32978D6
:104E100034F82100430401D5430605D400E046E000
:104E200044F2400318424ED134F82100104048F2B9
:104E3000C002104324F8210045E0A9692869814295
:104E400002D9091AA96102E00846C5F8189013BBF7
:104E5000B4F850102A78214401EB0211B1F804246F
:104E6000C2F30902A1F8042401F204413E2808D942
:104E70004209C30600D1521E0B8847EA822208E08D
:104E800021E078B14208C30700D0521C0B8808EA21
:104E9000822213430B80697800293FF42EAF012949
:104EA00009D010E00A8842F400420A80F3E70028A3
:104EB0007FF443AF3DE7B4F8502011192A7801EB95
:104EC0000211A1F80C04297834F821004BF68F72F6
:104ED000104080F4405040EA0A0024F821000020ED
:104EE000A8E50021A0F844104FF43F41A0F840107D
:104EF000002070470148FCF789B80000B806002080
:104F0000B0F844007047000010B500EB42005C08A8
:104F100000F5806009D000BF30F8042B01F8012BA8
:104F2000120A01F8012B641EF6D1DA0701D00088BD
:104F3000087010BD0020704711B98021A0F84C10F6
:104F40000020704710B55B1C00EB42005B0800F5C9
:104F5000806009D011F8012B11F8014B42EA0422BC
:104F600020F8042B5B1EF5D110BDFEE70907090EE2
:104F7000002804DB00F1E02080F80014704700F006
:104F80000F0000F1E02080F8141D704702E008C80F
:104F9000121F08C1002AFAD170477047002001E0B3
:104FA00001C1121F002AFBD17047FBF779FCFEF705
:104FB00082FAFDF74DFBFDF735FBFDF77BFCFDF7B6
:104FC0005DFCFDF7C5FBFDF725FCFDF7A9FBFEF732
:104FD000B7F8FBF70BF9FDF7A5FA0D20FDF7D6FFA3
:104FE000FBF750F9F7E70102020304050607080979
:104FF0000A0B0C0D0E0F1010010202030405060728
:1050000008090A0B0C0D0E0F101000000000000024
:105010000000010203040607080900000000010265
:105020000304000000000000000000000000000079
:105030000000000000F80000000000000033300015
:10504000000000100C06100C06000000000000001C
:10505000000040C07840C0784000043F04043F0492
:105060000400007088FC08300000001820FF211E9A
:105070000000F008F000E018000000211C031E21D1
:105080001E0000F00888700000001E21232419274C
:10509000211010160E0000000000000000000000AB
:1050A0000000000000E018040200000000071820C3
:1050B000400000020418E000000000402018070033
:1050C0000000404080F0804040000202010F0102D9
:1050D0000200000000F0000000000101011F0101BA
:1050E0000100000000000000000080B0700000001F
:1050F00000000000000000000000000101010101AB
:10510000010100000000000000000030300000003D
:105110000000000000008060180400601806010014
:10512000000000E010080810E000000F1020201020
:105130000F00001010F8000000000020203F202089
:105140000000007008080888700000302824222120
:1051500030000030088888483000001820202011D6
:105160000E000000C02010F8000000070424243FB7
:10517000240000F808888808080000192120201160
:105180000E0000E0108888180000000F1120201188
:105190000E0000380808C83808000000003F000072
:1051A00000000070880808887000001C222121225D
:1051B0001C0000E010080810E0000000312222115D
:1051C0000F00000000C0C0000000000000303000F0
:1051D000000000000080000000000000806000006F
:1051E00000000000804020100800000102040810A8
:1051F00020004040404040404000040404040404B7
:105200000400000810204080000000201008040264
:105210000100007048080808F00000000030360166
:105220000000C030C828E810E00007182724231425
:105230000B000000C038E0000000203C23020227E1
:10524000382008F8888888700000203F202020112E
:105250000E00C03008080808380007182020201069
:10526000080008F808080810E000203F202020105F
:105270000F0008F88888E8081000203F202023202D
:10528000180008F88888E8081000203F2000030074
:105290000000C03008080838000007182020221E2F
:1052A000020008F808000008F808203F2101012149
:1052B0003F20000808F8080800000020203F2020B8
:1052C000000000000808F8080800C08080807F0007
:1052D000000008F888C028180800203F2001263860
:1052E000200008F8080000000000203F20202020B7
:1052F000300008F8F800F8F80800203F003F003FB1
:10530000200008F830C00008F808203F20000718E7
:105310003F00E01008080810E0000F1020202010C7
:105320000F0008F808080808F000203F21010101DB
:105330000000E01008080810E0000F18242438507E
:105340004F0008F8888888887000203F2000030CF0
:1053500030200070880808083800003820212122F9
:105360001C00180808F8080818000000203F20005A
:10537000000008F808000008F808001F202020207E
:105380001F000878880000C83808000007380E01A0
:105390000000F80800F80008F800033C0700073C8C
:1053A0000300081868808068180820302C03032C3C
:1053B00030200838C800C83808000000203F20000E
:1053C000000010080808C8380800203826212020CE
:1053D0001800000000FE020202000000007F4040B2
:1053E0004000000C30C00000000000000001063842
:1053F000C00000020202FE000000004040407F00AA
:10540000000000000402020204000000000000008E
:10541000000000000000000000008080808080808C
:105420008080000202040000000000000000000074
:1054300000000000808080800000001924222222C9
:105440003F2008F8008080000000003F112020115C
:105450000E000000008080800000000E112020203F
:105460001100000000808088F800000E112020103C
:105470003F200000808080800000001F2222222226
:105480001300008080F0888888180020203F2020AA
:1054900000000000808080808000006B94949493D2
:1054A000600008F8008080800000203F210000207C
:1054B0003F2000809898000000000020203F20201E
:1054C0000000000000809898000000C08080807F6D
:1054D000000008F8000080808000203F24022D306A
:1054E0002000000808F8000000000020203F2020D5
:1054F00000008080808080808000203F20003F204E
:10550000003F8080008080800000203F210000203C
:105510003F200000808080800000001F202020208D
:105520001F00808000808000000080FFA1202011EB
:105530000E000000008080808000000E112020A05E
:10554000FF80808080008080800020203F2120001C
:105550000100000080808080800000332424242407
:105560001900008080E0808000000000001F2020E3
:1055700000008080000000808000001F202020109C
:105580003F20808080000080808000010E3008066F
:10559000010080800080008080800F300C030C3080
:1055A0000F0000808000808080000020312E0E31AE
:1055B0002000808080000080808080818E701806AE
:1055C000010000808080808080000021302C22211A
:1055D000300000000000807C020200000000003F5C
:1055E000404000000000FF00000000000000FF003D
:1055F00000000002027C800000000040403F0000EC
:105600000000000601010202040400000000000086
:10561000000000003456000800000020E0010000F7
:10562000940100083C570008E001002030120000FF
:105630009C4F0008320182105324F413513D1B0883
:1056400001041AA104818BF53C0C811A39201A2D12
:10565000041A45041A21041409022213010125E049
:105660003209041501030102150921110114012257
:105670003F160705810304220A091F240A21072473
:105680002948691231130A0632022A40CC100E054D
:10569000010906A101050719E029E715281A2501C6
:1056A00075019508810295017508810395057501BD
:1056B000050819012905911218080391039506752B
:1056C00008261A6530111429658112C013F93A149D
:1056D00008293B1B0835041A55041A75041AD914F5
:1056E0001A05084F0403090412016C157904BB2C38
:1056F0001D020102037503261A03780D5251504F03
:1057000007090D0E1D1B29280D4C292C2C0D1009E5
:1057100016070E0F29090D2829093D50090D4F1AAA
:1057200001161280127012601250124012301A20AC
:0C573000041A28061218121002110800BA
:04000005080000ED02
:00000001FF
